:100000000C94A1000C947B210C947B210C947B21FB
:100010000C947B210C947B210C94EB0A0C947B16A2
:100020000C947B210C94C1150C94FF150C943D1677
:100030000C947B210C947B210C947B210C947B21D0
:100040000C947B210C947B210C947B210C947B21C0
:100050000C947B210C947B210C941A0E0C947B2124
:100060000C947B210C947B210C94161B0C947B210B
:100070000C947B210C94240C0C947B210C94A918D7
:100080000C94D8180C94B1130C9449140C947B2143
:100090000C947B210C947B210C947B210C947B2170
:1000A0000C947B210C947B210C947B210C947B2160
:1000B0000C945F130C94880E0C9483150C947B2184
:1000C0000C94C9140C9407150C9445150C94CE1A75
:1000D0000C947B210C947B210C947B210C947B2130
:1000E0000C947B210C947B210C94AA1A0C94F21A88
:1000F0000C947B210C947B210C947B210C947B2110
:100100004000404280404240520043084052407FFD
:1001100080407F409B004318409B40F78040F74061
:10012000F900433440F940FD8040FD40FF00433674
:1001300040FF410880410841090043384109410D11
:10014000800011241FBECFEFCDBFDFE7DEBFE0E0B0
:10015000F1E041E019C0B791A7913791279107913C
:1001600007FD0EC097918791EF01F92FE82F0BBF84
:1001700007900D92A217B307D9F7FE011BBE04C06A
:100180001D92A217B307E1F7E134F40721F70E94AB
:0A019000B20C0C945C20F894FFCF31
:10019A00A2E2B0E0E3EDF0E00C94D01C2B013C01AC
:1001AA002D833E834F83588749015A01E894B7F853
:1001BA0081149104A104B10409F41BC669877A87E2
:1001CA008B879C87DC01CB010097E0E8AE07EFE361
:1001DA00BE0709F40EC673016201E894F7F8F1E06C
:1001EA00CF16D104F0E8EF06FFE7FF060CF0FCC5D6
:1001FA0001E08016910400E8A0060FE7B0060CF0B3
:10020A00F3C5B7FF40C08114910410E8A1061BE4AE
:10021A00B106DCF58114910460E8A6066FE3B60620
:10022A000CF45AC0D501C40107E1B595A795979575
:10023A0087950A95D1F78F579109A109B10967E105
:10024A0070E0681B790BD501C401062E04C0B59570
:10025A00A795979587950A94D2F789839A83AB8352
:10026A00BC8304C0880F991FAA1FBB1F6A95D2F7C7
:10027A0088169906AA06BB0679F58981817002E07B
:10028A00081B0D872AC01D8602C012E01D87811433
:10029A00910460E8A6066FE7B606F9F4C114D10422
:1002AA0080E8E8068FE3F80609F4A3C54D805E806E
:1002BA006F80788491E0C916D10490E8E9069FE33B
:1002CA00F9062CF077FC9AC5CA01B901A2C577FED6
:1002DA0095C5CA01B9018DC01D868114910400E833
:1002EA00A0060FE3B00679F42D813E814F8158852F
:1002FA0057FF88C560E070E080E89FE3A3019201A0
:10030A000E94702186C52D8B3E8B4F8B588F8D8115
:10031A009E81AF81B8850097A105B04439F4A30145
:10032A009201C301B2010E94742173C50D811E811D
:10033A002F8138850115110521054FE3340759F43A
:10034A0089859A85AB85BC85B7FD05C0C301B20115
:10035A000E94C6085EC5C301B2010E947D2169835D
:10036A007A838B839C83C114D104E104F10449F09C
:10037A009FE3792241145104A0E86A06AFE37A06A2
:10038A00D1F54D805E806F80788477FE0EC060E084
:10039A0070E080E89FE329813A814B815C810E9469
:1003AA00702169837A838B839C8349845A846B8402
:1003BA007C8477FE2AC500E8E01A0FE3F00A1D855F
:1003CA00C12AC114D104E104F10459F481E290E094
:1003DA0080930040909301406FEF7FEF8FEF9FE78C
:1003EA0018C50D8569817A818B819C81013009F05C
:1003FA0010C590580EC549845A846B847C8477FE54
:10040A0010C05D84552011F3052D013051F4412CA3
:10041A00512C612CA0E87A2E49865A866B867C86F6
:10042A0004C019861A861B861C8601E08016910470
:10043A00A1040DE4B0060CF48CC018EFC1161FEF2E
:10044A00D1061FE7E1061FE3F1063CF44D805E800A
:10045A006F80788477FE4BC31FC308E0C016D104AF
:10046A0000E8E0060FE3F0065CF04D805E806F80E6
:10047A00788414141504160417040CF40DC337C336
:10048A0020E030E040E85FE369817A818B819C81DA
:10049A000E943F216B017C0120E03AEA48EB5FE3CE
:1004AA000E9474214B015C0120E735EA4CEE56E3C9
:1004BA00C701B6010E9474216D837E838F8398875A
:1004CA0020E030E040E85EE3C701B6010E947421F3
:1004DA009B01AC016BEA7AEA8AEA9EE30E943F2119
:1004EA00A70196010E9474219B01AC0160E070E0B3
:1004FA0080E09FE30E943F212B013C01A701960166
:10050A00C701B6010E9474219B01AC01C301B2016B
:10051A000E9474212BE33AEA48EB5FE30E947421BC
:10052A009B01AC016D817E818F8198850E943F215C
:10053A006B017C019B01AC01C501B4010E94402101
:10054A006627707F6D837E838F839887A5019401C8
:10055A0022C2C114D10400E8E006F1048CF420E0C0
:10056A0030E040E85BE469817A818B819C810E945A
:10057A0074216B017C0148EE5FEF6FEF7FEF03C0E0
:10058A0040E050E0BA01D701C601F7E1B595A79559
:10059A0097958795FA95D1F78F579109A109B109CE
:1005AA002C013D01440E551E661E771E4D865E8641
:1005BA006F86788AE894E7F8FF2446015701689421
:1005CA00A7F80FE3B02A12E7C11614ECD1061CE112
:1005DA00E106F104A4F027EDC21623EBD2062DE5BD
:1005EA00E206F1048CF0D301C2010196A11DB11DEE
:1005FA008D879E87AF87B88B90E8A91AB1081982B0
:10060A001A821B821C8208C0412C512C320143944D
:10061A0049825A826B827C8269807A80660C771C56
:10062A00660C771C69A27AA2F301E157FF4B40805E
:10063A00518062807380498A5A8A6B8A7C8AA301B4
:10064A009201C501B4010E943F216D8F7E8F8F8F69
:10065A0098A3A3019201C501B4010E9440219B0104
:10066A00AC0160E070E080E89FE30E947021698F2E
:10067A007A8F8B8F9C8F9B01AC016D8D7E8D8F8DB8
:10068A0098A10E9474216D837E838F8398874D8001
:10069A005E806F807884442400EF502275016401E3
:1006AA00F594E794D794C794CC2410EFD122E89418
:1006BA00F5F86894F5F8D701C601A05CBF4FC98068
:1006CA00DA80EB80FC8075E1CC0CDD1CEE1CFF1C93
:1006DA007A95D1F7C80ED91EEA1EFB1EA70196010C
:1006EA00C301B2010E9474219B01AC016D8D7E8D04
:1006FA008F8D98A10E943F2169837A838B839C8383
:10070A0029893A894B895C89C701B6010E943F2130
:10071A009B01AC01C501B4010E943F21A3019201D2
:10072A000E9474219B01AC0169817A818B819C8131
:10073A000E943F21298D3A8D4B8D5C8D0E94742138
:10074A0069837A838B839C832D813E814F8158856F
:10075A00CA01B9010E9474216B017C0122E431EFC4
:10076A0043E55EE30E94742125E532E34CE65EE34D
:10077A000E944021A70196010E94742125E033EAD4
:10078A004BE85EE30E944021A70196010E94742172
:10079A002BEA3AEA4AEA5EE30E944021A70196015F
:1007AA000E94742127EB3DE64BED5EE30E94402157
:1007BA00A70196010E9474212AE939E949E15FE318
:1007CA000E9440214B015C01A7019601C701B601B5
:1007DA000E9474219B01AC01C501B4010E947421DD
:1007EA006B017C01A30192016D817E818F819885C5
:1007FA000E94402129813A814B815C810E947421A7
:10080A00A70196010E9440216B017C01A30192017C
:10081A00C301B2010E947421698B7A8B8B8B9C8BEA
:10082A0020E030E040E450E40E944021A701960114
:10083A000E9440214B015C01882420EF9222A501ED
:10084A009401C301B2010E9474212B013C0120E0F2
:10085A0030E040E450E4C501B4010E943F212989F7
:10086A003A894B895C890E943F219B01AC01C701EF
:10087A00B6010E943F212D813E814F8158850E94F9
:10088A0074216B017C01A501940169817A818B81B4
:10089A009C810E9474219B01AC01C701B6010E9490
:1008AA0040214B015C019B01AC01C301B2010E94D2
:1008BA0040216B017C01CC2430EFD32220E030E4CC
:1008CA0046E75FE3C701B6010E94742169837A8310
:1008DA008B839C83A3019201C701B6010E943F2129
:1008EA009B01AC01C501B4010E943F212FE438E30A
:1008FA0046E75FE30E9474214B015C0126EC33E278
:10090A0046EF58EBC701B6010E9474219B01AC0166
:10091A00C501B4010E944021E9A1FAA1E158FF4BA7
:10092A0020813181428153810E9440216B017C01E7
:10093A006D857E858F8598890E94F9164B015C0129
:10094A0009A11AA109571F4BD8014D905D906D90CE
:10095A007C90A701960169817A818B819C810E9492
:10096A004021A30192010E944021A50194010E9405
:10097A0040216627707F6D837E838F839887A501C8
:10098A0094010E943F21A30192010E943F212981E3
:10099A003A814B815C810E943F219B01AC01C701D6
:1009AA00B6010E943F214B015C01CD88DE88EF88A9
:1009BA00F88CCC24B0EFDB22A70196016D897E89E1
:1009CA008F89988D0E943F212D813E814F815885C4
:1009DA000E9474212B013C012D893E894F89588D33
:1009EA00C501B4010E9474219B01AC01C301B2018B
:1009FA000E94402169837A838B839C83A701960195
:100A0A006D817E818F8198850E947421962EA72EF2
:100A1A00B82E892E698B7D8B182F092F262F372FF9
:100A2A00482F592F69817A818B819C810E944021AC
:100A3A006B017C016D877E878F87988B2B013C0128
:100A4A0061307105810523E4920734F54D845E8493
:100A5A006F84788841145104610423E4720619F5FD
:100A6A002CE33AEA48E353E369817A818B819C81DA
:100A7A000E9440212B013C01292D3A2D4B2D582D46
:100A8A00C701B6010E943F219B01AC01C301B2011B
:100A9A000E946B21181684F589859A85AB85BC85D9
:100AAA00A068BF679EC1DC01CB01BF770197A64151
:100ABA00B344ECF44D845E846F8478884114510405
:100ACA0026E1620623EC7206B9F4292D3A2D4B2D44
:100ADA00582DC701B6010E943F219B01AC016981D3
:100AEA007A818B819C810E94662118162CF0698577
:100AFA007A858B859C858DC1D701C601BF778130E8
:100B0A009105A1053FE3B3070CF476C037E1B5952B
:100B1A00A795979587953A95D1F78E5740E050E07B
:100B2A0060E870E02A013B0104C075946794579409
:100B3A0047948A95D2F7C40CD51CE61CF71C2601EB
:100B4A003701E89477F847E1759467945794479486
:100B5A004A95D1F70FE7401A5108610871088FEFDB
:100B6A009FEFAFE7B0E0042C04C0B595A795979521
:100B7A0087950A94D2F780959095A095B0959C0197
:100B8A00AD012C213D214E215F21E894E7F8FF2495
:100B9A006894E7F887E190E08419950926013701FE
:100BAA0004C075946794579447948A95D2F74D82F6
:100BBA005E826F8278864D845E846F84788877FE41
:100BCA0010C04D805E806F807884709460945094D9
:100BDA004094411C511C611C711C4D825E826F82C3
:100BEA007886692D7A2D8B2D982D0E943F21698B4D
:100BFA007D8B182F092F04C01D821E821F82188622
:100C0A0029813A814B815C8169897D89812F902F65
:100C1A000E9440214B015C01882420E8922220E0B6
:100C2A0032E741E35FE3C501B4010E9474212B015D
:100C3A003C0129893D89412F502FC501B4010E94E9
:100C4A003F219B01AC0169817A818B819C810E9441
:100C5A003F2128E132E741E35FE30E9474216B01FF
:100C6A007C012CE83EEB4FEB55E3C501B4010E9431
:100C7A0074219B01AC01C701B6010E9440214B01BE
:100C8A005C019B01AC01C301B2010E9440216B01CE
:100C9A007C01A30192010E943F219B01AC01C50185
:100CAA00B4010E943F212B013C01A7019601C70113
:100CBA00B6010E9474214B015C012CE43BEB41E339
:100CCA0053E30E9474212EE03AEE4DED55E30E9463
:100CDA003F21A50194010E94742125E533EB4AE8DE
:100CEA0058E30E944021A50194010E94742121E643
:100CFA003BE046E35BE30E943F21A50194010E9489
:100D0A0074212BEA3AEA4AE25EE30E944021A501F5
:100D1A0094010E9474219B01AC01C701B6010E9493
:100D2A003F214B015C019B01AC01C701B6010E9446
:100D3A00742169837A838B839C8320E030E040E0CE
:100D4A0050E4C501B4010E943F219B01AC016981B5
:100D5A007A818B819C810E9470214B015C01A301E5
:100D6A009201C701B6010E947421A30192010E9457
:100D7A0040219B01AC01C501B4010E943F21A7019A
:100D8A0096010E943F219B01AC0160E070E080E87F
:100D9A009FE30E943F214D805E806F80788427E127
:100DAA00440C551C661C771C2A95D1F7460E571E13
:100DBA00681E791E4114510430E8630671042CF44C
:100DCA004D815E810E94B31202C0C301B2014984FF
:100DDA005A846B847C844626572668267926D30152
:100DEA00C201BC01CD0115C060E070E080EC9FE754
:100DFA0010C060E070E080E89FE30BC060E070E044
:100E0A00CB0107C0C301B20104C069817A818B8119
:0A0E1A009C81A296E0E10C94311DCA
:100E2400CF93DF93CDB7DEB780E094E0FC0114826A
:100E340080E294E0FC01148280E494E021E0FC016F
:100E4400248380E694E0FC01148280E894E0FC01B1
:100E5400148280EA94E0FC01148280EC94E0FC01AA
:100E6400148280E094E027E5FC01208380E294E092
:100E7400FC01108280E494E021E7FC01208380E6F9
:100E840094E0FC01108280E894E0FC01108280EA86
:100E940094E0FC01108280EC94E0FC01108280E07C
:100EA40094E0FC01108A80E094E0FC01118A80E067
:100EB40094E0FC01128A80E094E0FC01138A80E053
:100EC40094E0FC01148A80E094E0FC01158A80E03F
:100ED40094E0FC01168A80E094E0FC01178A80E229
:100EE40094E0FC01108A80E294E0FC01118A80E223
:100EF40094E0FC01128A80E294E0FC01138A80E20F
:100F040094E0FC01148A80E294E0FC01158A80E2FA
:100F140094E0FC01168A80E294E0FC01178A80E4E4
:100F240094E0FC01108A80E494E0FC01118A80E4DE
:100F340094E0FC01128A80E494E0FC01138A80E4CA
:100F440094E0FC01148A80E494E0FC01158A80E4B6
:100F540094E0FC01168A80E494E028E0FC01278BED
:100F640080E694E0FC01108A80E694E024E0FC0131
:100F7400218B80E694E0FC01128A80E694E0FC0177
:100F8400138A80E694E0FC01148A80E694E0FC0174
:100F9400158A80E694E0FC01168A80E694E0FC0160
:100FA400178A80E894E0FC01108A80E894E0FC0150
:100FB400118A80E894E0FC01128A80E894E024E03D
:100FC400FC01238B80E894E0FC01148A80E894E01F
:100FD400FC01158A80E894E0FC01168A80E894E01C
:100FE40024E0FC01278B80EA94E0FC01108A80EA6B
:100FF40094E0FC01118A80EA94E0FC01128A80EA00
:1010040094E0FC01138A80EA94E0FC01148A80EAEB
:1010140094E0FC01158A80EA94E0FC01168A80EAD7
:1010240094E0FC01178A80EC94E0FC01108A80ECC7
:1010340094E0FC01118A80EC94E0FC01128A80ECBB
:1010440094E0FC01138A80EC94E0FC01148A80ECA7
:1010540094E0FC01158A80EC94E0FC01168A80EC93
:1010640094E0FC01178A80EE95E0FC01118680EE85
:1010740095E0FC01118280EE95E0FC01108280EE87
:1010840095E0FC01148280EE95E028E0FC012683C3
:1010940080EE95E0FC01178280EE95E0FC0110865D
:1010A40080EE95E0FC01158280EE95E0FC01128251
:1010B40080EE95E0FC01138280EE95E0FC0112863F
:1010C40087E690E20E94CD1D8FE690E20E94E01D2B
:1010D40087E790E20E94F31D8FE790E20E94061ECC
:1010E40087E890E20E94191E8FE890E20E942C1E6D
:1010F40087E990E20E943F1E8FE990E20E94521E0F
:1011040087EA90E20E94651E8FEA90E20E94781EB0
:1011140087EB90E20E948B1E8FEB90E20E949E1E52
:1011240087EC90E20E94B11E8FEC90E20E94C41EF4
:1011340087ED90E20E94D71E8FED90E20E94EA1E96
:1011440087EE90E20E94FD1E8FEE90E20E94101F37
:1011540087EF90E20E94231F8FEF90E20E94361FD8
:1011640087E091E20E94491F8FE091E20E945C1F98
:1011740087E191E20E946F1F8FE191E20E94821F3A
:081184000000DF91CF910895F6
:10118C00A4E0B0E0ECECF8E00C94D01C8B019C01DA
:10119C00AC0140785F776B017C0140385F4761F4AC
:1011AC00E894E7F8FF24C114D104E104F10409F038
:1011BC00ACC097FDAAC0AEC0E894F7F8C114D10436
:1011CC00E104F10409F4A6C097FF07C081E290E0A6
:1011DC00809300409093014098C0DC01CB0167E103
:1011EC00B595A795979587956A95D1F70097A10521
:1011FC00B105B9F480E090E0DC0127FD08C0000FD8
:10120C00111F221F331F0196A11DB11DF6CF01978F
:10121C00A109B109B095A095909581959F4FAF4FBD
:10122C00BF4F8F579109A109B1092F773327206838
:10123C0080FF04C0000F111F221F331FAC01BD0122
:10124C00759567955795479549835A836B837C832E
:10125C00000F111F221F331F49E150E0812C912CEC
:10126C005401B394C12CD12C760180E090E0DC01C8
:10127C002C013D01480C591C6A1C7B1C04151505DE
:10128C002605370574F0D301C201880D991DAA1DDE
:10129C00BB1D0419150926093709C80CD91CEA1CF1
:1012AC00FB1C000F111F221F331FB694A794979499
:1012BC00879441505109E1F60115110521053105BD
:1012CC0051F0970186010170112722273327C00E98
:1012DC00D11EE21EF31EF594E794D794C79451ECFB
:1012EC00F51A89819A81AB81BC8127E1880F991FFE
:1012FC00AA1FBB1F2A95D1F78C0D9D1DAE1DBF1DBE
:10130C00482F392F2A2F5B2F09C040E030E020EC0A
:10131C005FE704C0462F372F282F592F642F732FC8
:0C132C00822F952F2496E0E10C94311DD7
:101338000F931F93CF93DF930F92CDB7DEB78983B7
:101348008981882F90E08230910509F44DC083305F
:1013580091052CF4009759F00197E1F18CC0833086
:10136800910509F44BC0049709F452C084C08091D8
:10137800974090919840A0919940B0919A4000E090
:1013880010E09801AC01BD0181E00E945A128091E1
:10139800974090919840A0919940B0919A4000E070
:1013A80010E020EF32E4AC01BD0182E00E945A1245
:1013B8008091974090919840A0919940B0919A401F
:1013C80000E010E020E733E4AC01BD0183E00E94B7
:1013D8005A1253C000E010E0980140E050E0BA0112
:1013E80083E00E945A1249C000E010E0980140E0F2
:1013F80050E0BA0182E00E945A123FC000E010E0BB
:10140800980140E050E0BA0181E00E945A1235C0CC
:101418008091974090919840A0919940B0919A40BE
:1014280000E010E020E733E4AC01BD0181E00E9458
:101438005A128091974090919840A0919940B0910C
:101448009A4000E010E020EF32E4AC01BD0182E0F8
:101458000E945A128091974090919840A09199408B
:10146800B0919A4000E010E09801AC01BD0183E022
:101478000E945A1202C081E001C080E00F90DF9103
:08148800CF911F910F9108950F
:10149000CF93DF9300D0CDB7DEB780910541882F81
:1014A00090E0880F991F8E5F9F4BFC011082118284
:1014B00080E298E0FC018181882F90E08470992778
:1014C000892BC9F080910541882F90E0880F991FE2
:1014D0008E5F9F4BFC0120812260FC012083809164
:1014E000E5409091E640892B31F08091E540909164
:1014F000E640FC01099580E298E0FC018181882F9B
:1015000090E082709927892B89F08091E340816077
:101510008093E3408091E9409091EA40892B31F03B
:101520008091E9409091EA40FC01099580E298E0C1
:10153000FC018181882F90E080749927892BC9F064
:1015400080910541882F90E0880F991F8E5F9F4BF7
:10155000FC0120812460FC0120838091E740909170
:10156000E840892B31F08091E7409091E840FC0100
:10157000099580E298E0FC01808189838091054192
:101580008F5F8F708A83809106419A81981789F0C6
:1015900080910541882F90E08E5C9F4B2981FC0152
:1015A00020838A8180930541809107418F5F8093DA
:1015B00007418091F1409091F240892B31F0809168
:1015C000F1409091F240FC01099500000F900F90BE
:0615D000DF91CF910895A8
:1015D6001F920F920FB60F9211240BB60F922F93F4
:1015E6003F934F935F936F937F938F939F93AF93A5
:1015F600BF93EF93FF93CF93DF93CDB7DEB780E032
:1016060090E0FC018381882F90E081709927892BD7
:1016160031F08091A9409091AA40FC01099580E0A3
:1016260090E0FC018381882F90E082709927892BB6
:1016360031F08091AB409091AC40FC01099580E07F
:1016460090E0FC018381882F90E084709927892B94
:1016560031F08091AD409091AE40FC01099580E05B
:1016660090E0FC018381882F90E080729927892B76
:1016760031F08091AF409091B040FC01099580E037
:1016860090E0FC018381882F90E080719927892B57
:1016960031F08091B1409091B240FC01099580E013
:1016A60090E0FC018381882F90E080749927892B34
:1016B60031F08091B3409091B440FC01099580E0EF
:1016C60090E0FC018381882334F48091BF4090919F
:1016D600C040FC01099580E090E02FEFFC012383D8
:1016E6000000DF91CF91FF91EF91BF91AF919F9154
:1016F6008F917F916F915F914F913F912F910F90B5
:0C1706000BBE0F900FBE0F901F901895A7
:10171200CF93DF93CDB7DEB72F97CDBFDEBF198250
:1017220083C088E090E0FC01828188230CF47CC0B5
:101732001092F9401092FA408981809589838981BB
:101742000E94341780E090E0AAEFB3E48A839B837F
:10175200AC83BD8320E030E84BEB55E46A817B81AA
:101762008C819D810E947421DC01CB018E839F8339
:10177200A887B98720E030E040E85FE36E817F818F
:10178200888599850E94662188232CF481E090E067
:101792008A879B873FC020E03FEF4FE757E46E8187
:1017A2007F81888599850E946B2118164CF520E06F
:1017B20030E040E251E46A817B818C819D810E940C
:1017C2007421DC01CB01BC01CD010E943619DC0180
:1017D200CB018A879B870FC088E592E08C879D8723
:1017E2008C859D850197F1F78C879D878A859B85DE
:1017F20001978A879B878A859B85892B69F714C005
:101802006E817F81888599850E943619DC01CB0122
:101812008A879B878A859B858E879F878E859F85F2
:101822000197F1F78E879F878091F9409091FA4056
:101832008131974208F475CF00002F96CDBFDEBFED
:06184200DF91CF91089533
:101848001F920F920FB60F9211240BB60F922F937F
:101858003F934F935F936F937F938F939F93AF9330
:10186800BF93EF93FF93CF93DF93CDB7DEB788E0B5
:1018780090E0FC018381882F90E080719927892B63
:1018880031F08091A3409091A440FC01099588E033
:1018980090E0FC018381882F90E080729927892B42
:1018A80031F08091A5409091A640FC01099588E00F
:1018B80090E0FC018381882F90E080749927892B20
:1018C80031F08091A7409091A840FC01099588E0EB
:1018D80090E0FC018381882F90E082709927892B02
:1018E80031F08091B5409091B640FC01099588E0AF
:1018F80090E0FC018381882F90E081709927892BE3
:1019080031F08091B7409091B840FC01099588E08A
:1019180090E0FC018381882334F48091C540909144
:10192800C640FC01099588E090E02FEFFC01238375
:101938000000DF91CF91FF91EF91BF91AF919F91FF
:101948008F917F916F915F914F913F912F910F9060
:0C1958000BBE0F900FBE0F901F90189553
:10196400CF93DF93CDB7DEB72E97CDBFDEBF0E94F6
:10197400C41B789488E798E10E94951F80E090E06A
:10198400AAEFB4E489839A83AB83BC8320E030E874
:101994004BEB55E469817A818B819C810E9474218F
:1019A400DC01CB018D839E83AF83B88720E030E0D8
:1019B40040E85FE36D817E818F8198850E94662176
:1019C40088232CF481E090E089879A873FC020E047
:1019D4003FEF4FE757E46D817E818F8198850E94A8
:1019E4006B2118164CF520E030E040E251E46981A7
:1019F4007A818B819C810E947421DC01CB01BC0122
:101A0400CD010E943619DC01CB0189879A870FC06A
:101A140088E592E08B879C878B859C850197F1F7FD
:101A24008B879C8789859A85019789879A87898579
:101A34009A85892B69F714C06D817E818F81988581
:101A44000E943619DC01CB0189879A8789859A859A
:101A54008D879E878D859E850197F1F78D879E875B
:101A64000E94801B0E94890B0E94B9160E94A71134
:021A7400FDCFA4
:101A7600CF92DF92EF92FF92CF93DF9300D000D008
:101A8600CDB7DEB719821A821B821C828091F9407B
:101A96009091FA40869708F450C01092F94010923F
:101AA600FA40C0906F40D0907040E0907140F09046
:101AB60072408091F5409091F640CC01A0E0B0E0F4
:101AC600BC01CD010E94F7169B01AC01C701B6010E
:101AD6000E947021DC01CB0189839A83AB83BC838E
:101AE60010926F40109270401092714010927240A6
:101AF60089819A81AB81BC81BC01CD010E94C60857
:101B0600DC01CB01BC01CD010E943619DC01CB0101
:101B1600CC01A0E0B0E0BC01CD010E94F716DC01CB
:101B2600CB018093634090936440A0936540B0934B
:101B360066401092F5401092F64000002496CDBF04
:101B4600DEBFDF91CF91FF90EF90DF90CF900895A9
:101B560010C00E944D2158F00E94462140F029F401
:101B66005F3F29F00C945B2151110C9455210C9484
:101B760078210E94A21B68F39923B1F3552391F3B0
:101B8600951B550BBB27AA2762177307840738F0E6
:101B96009F5F5F4F220F331F441FAA1FA9F335D043
:101BA6000E2E3AF0E0E832D091505040E695001CF7
:101BB600CAF72BD0FE2F29D0660F771F881FBB1FB1
:101BC600261737074807AB07B0E809F0BB0B802D8F
:101BD600BF01FF2793585F4F3AF09E3F510578F0BB
:101BE6000C945B210C9455215F3FE4F3983ED4F3AB
:101BF600869577956795B795F7959F5FC9F7880F8F
:101C0600911D9695879597F90895E1E0660F771FE0
:101C1600881FBB1F621773078407BA0720F0621B71
:0E1C2600730B840BBA0BEE1F88F7E095089540
:101C34001F920F920FB60F9211240BB60F922F938F
:101C44003F934F935F936F937F938F939F93AF9340
:101C5400BF93EF93FF93CF93DF93CDB7DEB78CE0C1
:101C640090E0FC018381882F90E082709927892B72
:101C740031F08091B9409091BA40FC0109958CE013
:101C840090E0FC018381882F90E081709927892B53
:101C940031F08091C7409091C840FC0109958CE0D7
:101CA40090E0FC018381882F90E084709927892B30
:101CB40031F08091C9409091CA40FC0109958CE0B3
:101CC40090E0FC018381882334F48091CB4090918F
:101CD400CC40FC0109958CE090E02FEFFC012383BC
:101CE4000000DF91CF91FF91EF91BF91AF919F9150
:101CF4008F917F916F915F914F913F912F910F90B1
:0C1D04000BBE0F900FBE0F901F901895A3
:101D10001F920F920FB60F9211240BB60F922F93B2
:101D20003F934F935F936F937F938F939F93AF9363
:101D3000BF93EF93FF93CF93DF93CDB7DEB780E1EF
:101D400090E0FC018381882334F48091BB40909122
:101D5000BC40FC01099580E190E0FC018381882F63
:101D600090E088709927892B31F08091BD40909147
:101D7000BE40FC01099580E190E0FC018381882F41
:101D800090E082709927892B31F08091CD4090911D
:101D9000CE40FC01099580E190E0FC018381882F11
:101DA00090E084709927892B31F08091CF409091F9
:101DB000D040FC01099580E190E02FEFFC012383E6
:101DC0000000DF91CF91FF91EF91BF91AF919F9173
:101DD0008F917F916F915F914F913F912F910F90D4
:0C1DE0000BBE0F900FBE0F901F901895C7
:101DEC00CF93DF93CDB7DEB788E49AE08093EF40D2
:101DFC009093F04084E198E18093EB409093EC4019
:101E0C0080E298E020EA31E0FC012087318780E213
:101E1C0098E020EDFC01258380E298E020ECFC01A9
:101E2C00268380E298E023E0FC01278380E298E09F
:101E3C00FC01138680E298E0FC01148680E298E0B5
:101E4C00FC01168680E298E0FC01158687E291E29F
:101E5C000E94471D8FE291E20E945E1D87E391E292
:101E6C000E94751D1092E3401092E44010920141C3
:101E7C001092024180E18093034181E08093044100
:101E8C0010920541109206411092074180E298E0B1
:101E9C0020E238E0F90125812068FC01258380913E
:101EAC00FD409091FE4022E430E4FC01208331831C
:081EBC000000DF91CF910895B1
:101EC4000FC00E94462138F00E944D2120F0952336
:101ED40011F00C945B210C94782111240C9455215D
:101EE4000E94A21B70F3959FC1F3950F50E0551FFC
:101EF400629FF001729FBB27F00DB11D639FAA275B
:101F0400F00DB11DAA1F649F6627B00DA11D661FA9
:101F1400829F2227B00DA11D621F739FB00DA11DCA
:101F2400621F839FA00D611D221F749F3327A00D84
:101F3400611D231F849F600D211D822F762F6A2F20
:101F440011249F5750409AF0F1F088234AF0EE0F85
:101F5400FF1FBB1F661F771F881F91505040A9F7B2
:101F64009E3F510580F00C945B210C9455215F3FFA
:101F7400E4F3983ED4F3869577956795B795F795EE
:101F8400E7959F5FC1F7FE2B880F911D9695879566
:041F940097F908951C
:101F980011C00E94462138F00E944D2120F039F4EA
:101FA8009F3F19F426F40C9478210EF4E095E7FB92
:101FB8000C945B21E92F0E94A21B58F3BA17620701
:101FC80073078407950720F079F4A6F50C9454213B
:101FD8000EF4E0950B2EBA2FA02D0B01B90190013C
:101FE8000C01CA01A0011124FF27591B99F0593F80
:101FF80050F4503E68F11A16F040A22F232F342FC8
:102008004427585FF3CF469537952795A795F04015
:102018005395C9F77EF41F16BA0B620B730B840B2A
:10202800BAF09150A1F0FF0FBB1F661F771F881FE2
:10203800C2F70EC0BA0F621F731F841F48F487953A
:1020480077956795B795F7959E3F08F0B0CF93952C
:0E205800880F08F09927EE0F97958795089549
:10206600CF93DF93CDB7DEB780E096E020E036E091
:10207600F90120812E7FFC01208380E096E020E09C
:1020860036E0F90124852C7FFC01248780E096E068
:1020960023E0FC01258710929F401092A0401092E9
:1020A600A1401092A24080E096E0FC01118280E0FF
:1020B60096E021E0FC01228380E096E0FC01138299
:1020C60080E096E0FC01148280E096E0FC01158237
:1020D60080E096E0FC01108680E096E020E4FC01BA
:1020E600218780E096E0FC01128680E096E0FC0104
:1020F600138680E096E0FC01168680E096E0FC01FF
:10210600148A158A80E096E0FC01128A138A80E020
:1021160096E0FC01148680E096E021E0FC01208335
:082126000000DF91CF91089544
:10212E00CF93DF93CDB7DEB72091F9403091FA40CF
:10213E008091F7409091F8408217930708F448C0B9
:10214E008091794090917A408732924008F440C055
:10215E008091F5409091F64001968093F5409093D2
:10216E00F6408091794090917A40CC01A0E0B0E0A9
:10217E00BC01CD010E94F716DC01CB0123EA36E04B
:10218E0043E55BE3BC01CD010E947421DC01CB0170
:10219E0020E030E040E050E4BC01CD010E94CD00D3
:1021AE009B01AC0180916F4090917040A091714065
:1021BE00B0917240BC01CD010E944021DC01CB01E7
:1021CE0080936F4090937040A0937140B093724093
:0821DE000000DF91CF9108958C
:1021E600CF93DF93CDB7DEB780E49AE0FC0110A66B
:1021F60011A680E49AE0FC0112A613A680E49AE0F8
:10220600FC0114A615A680E49AE0FC0110A211A216
:1022160080E49AE020E7FC01218380E49AE0FC0157
:10222600128280E49AE0FC01138280E49AE0FC01C9
:10223600148280E49AE0FC01158280E49AE0FC01B5
:10224600168280E49AE0FC01178280E49AE0FC01A1
:10225600168680E49AE0FC01118680E49AE021E08B
:10226600FC01228780E49AE0FC01138680E49AE070
:102276002EEF3FEFFC0126A337A380E49AE0FC0192
:10228600178680E49AE027E0FC0120830000DF91B6
:04229600CF91089547
:10229A00CF93DF93CDB7DEB780E09AE0FC0110A6BA
:1022AA0011A680E09AE0FC0112A613A680E09AE04B
:1022BA00FC0114A615A680E09AE0FC0110A211A266
:1022CA0080E09AE020E7FC01218380E09AE0FC01AB
:1022DA00128280E09AE0FC01138280E09AE0FC011D
:1022EA00148280E09AE0FC01158280E09AE0FC0109
:1022FA00168280E09AE0FC01178280E09AE0FC01F5
:10230A00168680E09AE0FC01118680E09AE021E0DE
:10231A00FC01228780E09AE0FC01138680E09AE0C3
:10232A002EEF3FEFFC0126A337A380E09AE0FC01E1
:10233A00178680E09AE027E0FC0120830000DF9105
:04234A00CF91089592
:10234E00CF93DF9300D0CDB7DEB780910C418130B3
:10235E0061F410920C410E94121A0E9401120E9406
:10236E001C200E940C130E943B0D80919B4090916B
:10237E009C40A0919D40B0919E40803E9349A440C8
:10238E00B10558F010929B4010929C4010929D40C7
:10239E0010929E4080E00E949C090E942A20882371
:1023AE0019F119821A820EC00E946F17282F898187
:1023BE009A818D509F4BFC01208389819A810196D1
:1023CE0089839A8389819A81029774F310929B4034
:1023DE0010929C4010929D4010929E4010920C4183
:1023EE008091F4400E949C0900000F900F90DF91A5
:0423FE00CF910895DE
:10240200CF93DF93CDB7DEB783E0809352408CEF5A
:1024120080935E40809177409091784080935340C2
:10242200909354408091794090917A4080935540A6
:102432009093564080917B4090917C40809357408E
:102442009093584080910841813021F08091084159
:10245200813089F48091974090919840A091994061
:10246200B0919A40BC01CD010E943619DC01CB012A
:1024720080935D4014C080910841823081F4809144
:10248200974090919840A0919940B0919A40BC0198
:10249200CD010E943619DC01CB0180935D406CE0D6
:1024A20070E082E590E40E9465190000DF91CF910F
:0224B20008958B
:1024B4000F931F93CF93DF93CDB7DEB72F97CDBF85
:1024C400DEBF8F83488759876A877B870C871D8780
:1024D4002E873F8719821A821B821C821D821E82CC
:1024E40088859985AA85BB85BC01CD010E944718C2
:1024F400DC01CB0189839A83AB83BC838C859D8566
:10250400AE85BF85BC01CD010E94C1198D839E8318
:102514008F810E940E200E94442089819A81AB8180
:10252400BC81AC01BD0180E090E40E9401148D8166
:102534009E81BC0180E090EC0E945E1B0E945020B2
:1025440040E050E060E070E080E090E00E943A1AE1
:1025540000002F96CDBFDEBFDF91CF911F910F9169
:022564000895D8
:102566000F931F93CF93DF93EA0140385105D4F0C0
:1025760020E030E040E05FE70E9474219E012F5783
:102586003109203831056CF120E030E040E05FE7AA
:102596000E947421CE5FD109C038D1051CF1CFE766
:1025A600D0E020C042385F4FECF420E030E040E855
:1025B6005CE00E9474219E012A593F4F22384FEF5A
:1025C60034077CF420E030E040E85CE00E947421AF
:1025D600C453DF4FC2382FEFD20724F4C2E8DFEF2F
:1025E60001C0E9019E0121583F4F8901330F220B9B
:1025F600330BA9019801E7E1220F331F441F551F32
:10260600EA95D1F70E947421DF91CF911F910F9126
:02261600089525
:10261800CF93DF93CDB7DEB72597CDBFDEBF1A8244
:102628001B821C821D8280910B41882F90E0092E0D
:10263800000CAA0BBB0BBC01CD010E94F916DC01F2
:10264800CB012DEB37E346E059E3BC01CD010E94F5
:102658007421DC01CB018A839B83AC83BD838A818F
:102668009B81AC81BD8126EA3BE944E45BE3BC0184
:10267800CD010E946B21181694F48A819B81AC814C
:10268800BD812FE632E143E05CE3BC01CD010E944D
:102698006621882324F410925940198205C081E0EC
:1026A8008093594081E0898389812596CDBFDEBF1B
:0626B800DF91CF910895AF
:1026BE001F920F920FB60F9211240BB60F922F93FB
:1026CE003F934F935F936F937F938F939F93AF93AC
:1026DE00BF93EF93FF93CF93DF93CDB7DEB784E035
:1026EE0090E0FC018381882F90E080719927892BDF
:1026FE0031F08091C1409091C240FC01099584E077
:10270E0090E0FC018381882F90E080729927892BBD
:10271E0031F08091C3409091C440FC01099584E052
:10272E0090E02FEFFC0123830000DF91CF91FF910A
:10273E00EF91BF91AF919F918F917F916F915F912B
:10274E004F913F912F910F900BBE0F900FBE0F9098
:04275E001F9018951B
:102762001F920F920FB60F9211240BB60F922F9356
:102772003F934F935F936F937F938F939F93AF9307
:10278200BF93EF93FF93CF93DF93CDB7DEB780E292
:1027920098E0FC018481882F90E08074992721E0E1
:1027A200892B09F420E0209304418091ED4090911F
:1027B200EE40892B31F08091ED409091EE40FC018A
:1027C200099580E298E020E238E0F9012481206452
:1027D200FC0124830000DF91CF91FF91EF91BF9123
:1027E200AF919F918F917F916F915F914F913F91A7
:1027F2002F910F900BBE0F900FBE0F901F90189548
:10280200CF93DF93CDB7DEB72A97CDBFDEBF8D83DF
:102812009E834F83588769877A878D819E818983BA
:102822009A838D819E818B839C838F819885A985D4
:10283200BA858827907CBF70072E7EE0B695A79553
:10284200979587957A95D1F7702D9C0189819A8108
:10285200822B932B89839A838F8198859F732B81F7
:102862003C81822B932B8B839C8380E090E20E949D
:1028720007198B819C810E94071989819A810E9484
:10288200071900002A96CDBFDEBFDF91CF910895D0
:102892001F920F920FB60F9211240BB60F922F9325
:1028A2003F934F935F936F937F938F939F93AF93D6
:1028B200BF93EF93FF93CF93DF93CDB7DEB784E15E
:1028C20090E0FC018381882F90E088709927892B02
:1028D20031F08091D1409091D240FC01099584E180
:1028E20090E02FEFFC0123830000DF91CF91FF9155
:1028F200EF91BF91AF919F918F917F916F915F9176
:102902004F913F912F910F900BBE0F900FBE0F90E2
:042912001F90189565
:10291600CF93DF93CDB7DEB72997CDBFDEBF8E83CA
:102926009F83688779878E819F8189839A831D8299
:10293600888599858B839C831EC080E499E02981D4
:102946003A81F9012081FC012483000080E499E0AA
:10295600FC0183818823D4F780E499E0FC0184811B
:102966008D8389819A81019689839A838B819C8143
:1029760001978B839C838B819C81892BF1F60000C8
:0C2986002996CDBFDEBFDF91CF910895F0
:102992001F920F920FB60F9211240BB60F922F9324
:1029A2003F934F935F936F937F938F939F93AF93D5
:1029B200BF93EF93FF93CF93DF93CDB7DEB78091B1
:1029C200D3409091D440892B31F08091D3409091A3
:1029D200D440FC01099580E49AE020E1FC012387C0
:1029E2000000DF91CF91FF91EF91BF91AF919F9145
:1029F2008F917F916F915F914F913F912F910F90A6
:0C2A02000BBE0F900FBE0F901F90189598
:102A0E001F920F920FB60F9211240BB60F922F93A7
:102A1E003F934F935F936F937F938F939F93AF9358
:102A2E00BF93EF93FF93CF93DF93CDB7DEB7809134
:102A3E00D5409091D640892B31F08091D540909120
:102A4E00D640FC01099580E49AE020E2FC01238740
:102A5E000000DF91CF91FF91EF91BF91AF919F91C8
:102A6E008F917F916F915F914F913F912F910F9029
:0C2A7E000BBE0F900FBE0F901F9018951C
:102A8A001F920F920FB60F9211240BB60F922F932B
:102A9A003F934F935F936F937F938F939F93AF93DC
:102AAA00BF93EF93FF93CF93DF93CDB7DEB78091B8
:102ABA00D7409091D840892B31F08091D74090919E
:102ACA00D840FC01099580E49AE020E4FC012387C0
:102ADA000000DF91CF91FF91EF91BF91AF919F914C
:102AEA008F917F916F915F914F913F912F910F90AD
:0C2AFA000BBE0F900FBE0F901F901895A0
:102B06001F920F920FB60F9211240BB60F922F93AE
:102B16003F934F935F936F937F938F939F93AF935F
:102B2600BF93EF93FF93CF93DF93CDB7DEB780913B
:102B3600D9409091DA40892B31F08091D94090911B
:102B4600DA40FC01099580E49AE021E0FC01238744
:102B56000000DF91CF91FF91EF91BF91AF919F91CF
:102B66008F917F916F915F914F913F912F910F9030
:0C2B76000BBE0F900FBE0F901F90189523
:102B82001F920F920FB60F9211240BB60F922F9332
:102B92003F934F935F936F937F938F939F93AF93E3
:102BA200BF93EF93FF93CF93DF93CDB7DEB78091BF
:102BB200DB409091DC40892B31F08091DB40909199
:102BC200DC40FC01099580E09AE020E1FC012387CA
:102BD2000000DF91CF91FF91EF91BF91AF919F9153
:102BE2008F917F916F915F914F913F912F910F90B4
:0C2BF2000BBE0F900FBE0F901F901895A7
:102BFE001F920F920FB60F9211240BB60F922F93B6
:102C0E003F934F935F936F937F938F939F93AF9366
:102C1E00BF93EF93FF93CF93DF93CDB7DEB7809142
:102C2E00DD409091DE40892B31F08091DD40909116
:102C3E00DE40FC01099580E09AE020E2FC0123874A
:102C4E000000DF91CF91FF91EF91BF91AF919F91D6
:102C5E008F917F916F915F914F913F912F910F9037
:0C2C6E000BBE0F900FBE0F901F9018952A
:102C7A001F920F920FB60F9211240BB60F922F9339
:102C8A003F934F935F936F937F938F939F93AF93EA
:102C9A00BF93EF93FF93CF93DF93CDB7DEB78091C6
:102CAA00DF409091E040892B31F08091DF40909194
:102CBA00E040FC01099580E09AE020E4FC012387CA
:102CCA000000DF91CF91FF91EF91BF91AF919F915A
:102CDA008F917F916F915F914F913F912F910F90BB
:0C2CEA000BBE0F900FBE0F901F901895AE
:102CF6001F920F920FB60F9211240BB60F922F93BD
:102D06003F934F935F936F937F938F939F93AF936D
:102D1600BF93EF93FF93CF93DF93CDB7DEB7809149
:102D2600E1409091E240892B31F08091E140909111
:102D3600E240FC01099580E09AE021E0FC0123874E
:102D46000000DF91CF91FF91EF91BF91AF919F91DD
:102D56008F917F916F915F914F913F912F910F903E
:0C2D66000BBE0F900FBE0F901F90189531
:102D72000F931F93CF93DF93CDB7DEB78091974028
:102D820090919840A0919940B0919A4000E010E053
:102D92009801AC01BD0181E00E945A1280919740D6
:102DA20090919840A0919940B0919A4000E010E033
:102DB20020EF32E4AC01BD0182E00E945A12809100
:102DC200974090919840A0919940B0919A4000E02C
:102DD20010E020E733E4AC01BD0183E00E945A1207
:0C2DE2000000DF91CF911F910F91089528
:102DEE00E89409C097FB3EF4909580957095619597
:102DFE007F4F8F4F9F4F9923A9F0F92F96E9BB274D
:102E0E009395F695879577956795B795F111F8CFC8
:102E1E00FAF4BB0F11F460FF1BC06F5F7F4F8F4F33
:102E2E009F4F16C0882311F096E911C0772321F029
:102E3E009EE8872F762F05C0662371F096E8862FC1
:102E4E0070E060E02AF09A95660F771F881FDAF718
:0A2E5E00880F9695879597F908955F
:102E6800CF93DF930F92CDB7DEB78983898188230B
:102E7800B1F082E08093084180E090E0A0E7B2E4FE
:102E88008093974090939840A0939940B0939A402C
:102E980083E290E08093F7409093F84015C081E07A
:102EA8008093084180E090E0A8E4B2E480939740E2
:102EB80090939840A0939940B0939A4083E290E011
:102EC8008093F7409093F8400E94011200000F9001
:062ED800DF91CF91089587
:102EDE00CF93DF9300D0CDB7DEB719828091064134
:102EEE00882F90E08E5C9F4BFC01808189838091BE
:102EFE0006418F5F8F708A838A818093064180E2BC
:102F0E0098E020E238E0F90125812F77FC01258336
:102F1E0080910741882329F0809107418150809349
:102F2E00074180E298E020E238E0F901258120682F
:102F3E00FC01258389810F900F90DF91CF91089529
:102F4E00CF93DF9300D0CDB7DEB78A838091034154
:102F5E008823F9F080910141882F90E08E5D9F4B80
:102F6E002A81FC012083809101418F5F8F708983BC
:102F7E0089818093014180E298E020E238E0F901F6
:102F8E0025812F7DFC012583809103418150809303
:102F9E00034180E298E020E238E0F90125812062C9
:102FAE00FC01258300000F900F90DF91CF910895C3
:102FBE00CF93DF93CDB7DEB760E080E690E00E945E
:102FCE00A21D60E081E690E00E94A21D60E082E614
:102FDE0090E00E94A21D60E083E690E00E94A21D98
:102FEE0064E288E690E00E94A21D60E089E690E02F
:102FFE000E94A21D60E088E790E00E94A21D60E0A2
:10300E0080E790E00E94A21D60E08CE790E00E94B5
:0A301E00A21D0000DF91CF9108957C
:10302800CF93DF930F92CDB7DEB710920441809112
:1030380003418031D0F480E298E020910241222FB0
:1030480030E02E5D3F4BF9012081FC012283809105
:1030580002418F5F8F7089838981809302418091BB
:1030680003418F5F8093034109C080E298E020E22A
:1030780038E0F90125812F7DFC01258300000F90A0
:06308800DF91CF910895D5
:10308E00CF93DF93CDB7DEB72897CDBFDEBF6D836D
:10309E007E838F83988719821A821B821C8227E770
:1030AE003CEC4BE251E46D817E818F8198850E94CC
:1030BE007421DC01CB01BC01CD010E943619DC016B
:1030CE00CB0189839A83AB83BC8389819A81AB813F
:1030DE00BC81BC01CD012896CDBFDEBFDF91CF9163
:0230EE00089543
:1030F000CF93DF93CDB7DEB781E080930C41809111
:10310000F9409091FA4001968093F9409093FA40EB
:1031100080919B4090919C40A0919D40B0919E4099
:103120000196A11DB11D80939B4090939C40A0935C
:103130009D40B0939E40809109418F5F80930941EB
:1031400080910A418F5F80930A410000DF91CF9107
:023150000895E0
:103152001F920F920FB60F9211240BB60F922F935C
:103162003F934F935F936F937F938F939F93AF930D
:10317200BF93EF93FF93CF93DF93CDB7DEB70E9458
:10318200480A0000DF91CF91FF91EF91BF91AF917B
:103192009F918F917F916F915F914F913F912F916D
:0E31A2000F900BBE0F900FBE0F901F90189550
:1031B0001F920F920FB60F9211240BB60F922F93FE
:1031C0003F934F935F936F937F938F939F93AF93AF
:1031D000BF93EF93FF93CF93DF93CDB7DEB70E94FA
:1031E00014180000DF91CF91FF91EF91BF91AF9143
:1031F0009F918F917F916F915F914F913F912F910F
:0E3200000F900BBE0F900FBE0F901F901895F1
:10320E00CF93DF93CDB7DEB72797CDBFDEBF8E83CB
:10321E009F8325E0CE010196FC01322F11923A9543
:10322E00E9F78E819F81892F992789838E818A83E1
:10323E008091FB4060E00E94851A62E070E0CE0152
:10324E0001960E948B148091FB4061E00E94851ACA
:0E325E0000002796CDBFDEBFDF91CF9108950F
:10326C000E94AA1B88F09F5798F0B92F9927B75145
:10327C00B0F0E1F0660F771F881F991F1AF0BA950E
:10328C00C9F714C0B13091F00E945421B1E00895F7
:10329C000C945421672F782F8827B85F39F0B93FE9
:1032AC00CCF3869577956795B395D9F73EF49095C1
:0E32BC008095709561957F4F8F4F9F4F0895BD
:1032CA00CF93DF93CDB7DEB72697CDBFDEBF8B8313
:1032DA009C836D837E8319821A8219821A8210C096
:1032EA008B819C819C012F5F3F4F2B833C83FC0188
:1032FA0080810E94A71789819A81019689839A837E
:10330A0029813A818D819E818217930748F70000AF
:0C331A002696CDBFDEBFDF91CF91089555
:10332600CF93DF930F92CDB7DEB72091F94030915E
:10333600FA408091F7409091F84082179307C8F4BD
:103346008091634090916440A0916540B091664041
:1033560020E030E040E05FE3BC01CD010E94662141
:10336600181614F0198202C081E08983898180933E
:0C3376005B4000000F90DF91CF910895A4
:10338200CF93DF93CDB7DEB72697CDBFDEBF6B837A
:103392007C838D839E8319821A822EE43BE046E36E
:1033A20050E46B817C818D819E810E947421DC01BD
:1033B200CB01BC01CD010E943619DC01CB0189830E
:1033C2009A8389819A812696CDBFDEBFDF91CF9104
:0233D20008955C
:1033D400CF93DF930F92CDB7DEB7898380E096E079
:1033E4002981FC01208780E096E020E036E0F901A5
:1033F40022852160FC012287000080E096E0FC0128
:103404008285882F90E081709927892BB1F780E01D
:1034140096E0FC01808991890F90DF91CF91089506
:10342400CF93DF9300D0CDB7DEB719821A8214C0D0
:1034340089810E94EA199C0189819A81880F991FC8
:1034440089589F4BFC01208331830E94DE1F8981B0
:103454009A81019689839A8389819A81039740F39B
:103464000E94971000000F900F90DF91CF91089564
:10347400CF93DF93CDB7DEB72897CDBFDEBF8B8365
:103484009C836D837E834F83588719821A822B8194
:103494003C818D819E81282B392B8F819885822BAD
:1034A400932B89839A8389819A810E94071900004A
:0C34B4002896CDBFDEBFDF91CF910895B8
:1034C000CF93DF9300D0CDB7DEB789836A8389813C
:1034D000882F90E08230910551F08330910559F0AA
:1034E000019709F00CC08A810E94381C08C08A81AB
:1034F0000E94511C04C08A810E946A1C00000000C6
:0A3500000F900F90DF91CF91089516
:10350A00CF93DF9300D0CDB7DEB789836A838981F1
:10351A00882F90E08230910551F08330910559F05F
:10352A00019709F00CC08A810E94831C08C08A8115
:10353A000E949C1C04C08A810E94B51C00000000E5
:0A354A000F900F90DF91CF910895CC
:103554001F920F920FB60F9211240BB60F922F9356
:103564008F939F93EF93FF93CF93DF93CDB7DEB702
:1035740088E190E02FEFFC0123830000DF91CF91DD
:10358400FF91EF919F918F912F910F900BBE0F9010
:083594000FBE0F901F90189567
:10359C001F920F920FB60F9211240BB60F922F930E
:1035AC008F939F93EF93FF93CF93DF93CDB7DEB7BA
:1035BC0088EC96E021E0FC0123830000DF91CF91A1
:1035CC00FF91EF919F918F912F910F900BBE0F90C8
:0835DC000FBE0F901F9018951F
:1035E4001F920F920FB60F9211240BB60F922F93C6
:1035F4008F939F93EF93FF93CF93DF93CDB7DEB772
:1036040080ED96E021E0FC0123830000DF91CF915F
:10361400FF91EF919F918F912F910F900BBE0F907F
:083624000FBE0F901F901895D6
:10362C001F920F920FB60F9211240BB60F922F937D
:10363C008F939F93EF93FF93CF93DF93CDB7DEB729
:10364C0080EC96E021E0FC0123830000DF91CF9118
:10365C00FF91EF919F918F912F910F900BBE0F9037
:08366C000FBE0F901F9018958E
:10367400990F0008550FAA0BE0E8FEEF161617067F
:10368400E807F907C0F012161306E407F50798F0E7
:10369400621B730B840B950B39F40A2661F0232B00
:1036A400242B252B21F408950A2609F4A140A6957C
:0836B4008FEF811D811D0895B7
:1036BC00CF93DF93CDB7DEB72697CDBFDEBF8B831D
:1036CC009C836D837E838B819C8189839A832981E2
:1036DC003A818D819E81822B932B89839A83898158
:1036EC009A810E94071900002696CDBFDEBFDF919C
:0436FC00CF910895CD
:10370000CF93DF9300D0CDB7DEB71A8281E08983F3
:1037100010C01A8208C089810E9400200E94E41B08
:103720008A818F5F8A838A818531A8F389818F5F3F
:1037300089838981843068F300000F900F90DF91B6
:04374000CF91089588
:1037440057FD9058440F551F59F05F3F71F047954E
:10375400880F97FB991F61F09F3F79F08795089533
:10376400121613061406551FF2CF4695F1DF08C052
:10377400161617061806991FF1CF8695710561056F
:043784000894089508
:10378800CF93DF93CDB7DEB70E94DF170E941207F1
:103798000E9433100E941D1C0E944D110E94F310BC
:1037A8000E94F60E0E94B81D0E94CC1F0E94A81FFE
:1037B8000E94BA1F0E94E71C0000DF91CF91089574
:1037C800CF93DF9300D0CDB7DEB78FE189838091A7
:1037D800FC4060E00E94601A61E070E0CE01019652
:1037E8000E948B148091FC4061E00E94601A0000E6
:0A37F8000F900F90DF91CF9108951C
:10380200CF93DF9300D00F92CDB7DEB789836A835F
:103812007B8300000E943720982F81E0892788232C
:10382200C9F789810E94A71780E090E02396CDBF57
:08383200DEBFDF91CF91089584
:10383A00CF93DF93CDB7DEB780E499E020E439E097
:10384A00F90120812E7FFC01208380E499E024E3A2
:10385A00FC01208380E499E026ECFC01218300002E
:06386A00DF91CF910895EB
:10387000CF93DF930F92CDB7DEB7898389818823F9
:1038800031F085E094E020E8FC01208305C086E06B
:1038900094E020E8FC01208300000F90DF91CF919D
:0238A000089589
:1038A200CF93DF930F92CDB7DEB7898389818823C7
:1038B20031F085E894E024E0FC01208305C086E82D
:1038C20094E024E0FC01208300000F90DF91CF916F
:0238D200089557
:1038D400CF93DF930F92CDB7DEB789838981882395
:1038E40031F085E294E020E1FC01208305C086E20A
:1038F40094E020E1FC01208300000F90DF91CF9140
:02390400089524
:10390600CF93DF930F92CDB7DEB789838981882362
:1039160031F085E694E020E8FC01208305C086E6C8
:1039260094E020E8FC01208300000F90DF91CF9106
:023936000895F2
:10393800CF93DF930F92CDB7DEB789838981882330
:1039480031F085EA94E028E0FC01208305C086EA8E
:1039580094E028E0FC01208300000F90DF91CF91D4
:023968000895C0
:10396A00CF93DF930F92CDB7DEB7898389818823FE
:10397A0031F085E894E022E0FC01208305C086E866
:10398A0094E022E0FC01208300000F90DF91CF91A8
:02399A0008958E
:10399C002F923F924F925F926F927F928F929F9253
:1039AC00AF92BF92CF92DF92EF92FF920F931F9341
:1039BC00CF93DF93CDB7DEB7CA1BDB0BCDBFDEBF1A
:0239CC0009945C
:1039CE00CF93DF93CDB7DEB761E080E191E00E9447
:1039DE008C1D80E191E021E0FC01228380E191E0E9
:1039EE0020E2FC012383789480E0DF91CF9108954B
:1039FE00CF93DF930F92CDB7DEB7809109418F3110
:103A0E0028F08FE180930941198202C081E08983F9
:103A1E00898180935C4000000F90DF91CF910895D3
:103A2E00CF93DF930F92CDB7DEB780910A418F31DE
:103A3E0028F08FE180930A41198202C081E08983C8
:103A4E00898180935A4000000F90DF91CF910895A5
:103A5E002A88398848885F846E847D848C849B8410
:103A6E00AA84B984C884DF80EE80FD800C811B811E
:103A7E00AA81B981CE0FD11DCDBFDEBFED01089554
:103A8E00CF93DF9300D0CDB7DEB789839A83898138
:103A9E009A81892B31F089819A818093E5409093A8
:0E3AAE00E64000000F900F90DF91CF91089539
:103ABC00CF93DF9300D0CDB7DEB789839A8389810A
:103ACC009A81892B31F089819A818093E740909378
:0E3ADC00E84000000F900F90DF91CF91089509
:103AEA00CF93DF9300D0CDB7DEB789839A838981DC
:103AFA009A81892B31F089819A818093E940909348
:0E3B0A00EA4000000F900F90DF91CF910895D8
:103B1800CF93DF9300D00F92CDB7DEB789839A8316
:103B28006B8389819A814B8168ED0E946121000035
:0C3B38002396CDBFDEBFDF91CF91089532
:103B4400CF93DF9300D00F92CDB7DEB789839A83EA
:103B54006B8389819A814B8168ED0E946121000009
:0C3B64002396CDBFDEBFDF91CF91089506
:103B7000CF93DF93CDB7DEB780EA90E0FC011482EB
:103B800080EA90E025E8FC01208380EA90E0FC01D7
:0A3B9000128280E0DF91CF910895CA
:103B9A00CF93DF9300D0CDB7DEB789839A8389812B
:103BAA009A818093A3409093A44000000F900F90B5
:063BBA00DF91CF91089598
:103BC000CF93DF9300D0CDB7DEB789839A83898105
:103BD0009A818093A5409093A64000000F900F908B
:063BE000DF91CF91089572
:103BE600CF93DF9300D0CDB7DEB789839A838981DF
:103BF6009A818093A7409093A84000000F900F9061
:063C0600DF91CF9108954B
:103C0C00CF93DF9300D0CDB7DEB789839A838981B8
:103C1C009A818093A9409093AA4000000F900F9036
:063C2C00DF91CF91089525
:103C3200CF93DF9300D0CDB7DEB789839A83898192
:103C42009A818093AB409093AC4000000F900F900C
:063C5200DF91CF910895FF
:103C5800CF93DF9300D0CDB7DEB789839A8389816C
:103C68009A818093AD409093AE4000000F900F90E2
:063C7800DF91CF910895D9
:103C7E00CF93DF9300D0CDB7DEB789839A83898146
:103C8E009A818093AF409093B04000000F900F90B8
:063C9E00DF91CF910895B3
:103CA400CF93DF9300D0CDB7DEB789839A83898120
:103CB4009A818093B1409093B24000000F900F908E
:063CC400DF91CF9108958D
:103CCA00CF93DF9300D0CDB7DEB789839A838981FA
:103CDA009A818093B3409093B44000000F900F9064
:063CEA00DF91CF91089567
:103CF000CF93DF9300D0CDB7DEB789839A838981D4
:103D00009A818093B5409093B64000000F900F9039
:063D1000DF91CF91089540
:103D1600CF93DF9300D0CDB7DEB789839A838981AD
:103D26009A818093B7409093B84000000F900F900F
:063D3600DF91CF9108951A
:103D3C00CF93DF9300D0CDB7DEB789839A83898187
:103D4C009A818093B9409093BA4000000F900F90E5
:063D5C00DF91CF910895F4
:103D6200CF93DF9300D0CDB7DEB789839A83898161
:103D72009A818093BB409093BC4000000F900F90BB
:063D8200DF91CF910895CE
:103D8800CF93DF9300D0CDB7DEB789839A8389813B
:103D98009A818093BD409093BE4000000F900F9091
:063DA800DF91CF910895A8
:103DAE00CF93DF9300D0CDB7DEB789839A83898115
:103DBE009A818093BF409093C04000000F900F9067
:063DCE00DF91CF91089582
:103DD400CF93DF9300D0CDB7DEB789839A838981EF
:103DE4009A818093C1409093C24000000F900F903D
:063DF400DF91CF9108955C
:103DFA00CF93DF9300D0CDB7DEB789839A838981C9
:103E0A009A818093C3409093C44000000F900F9012
:063E1A00DF91CF91089535
:103E2000CF93DF9300D0CDB7DEB789839A838981A2
:103E30009A818093C5409093C64000000F900F90E8
:063E4000DF91CF9108950F
:103E4600CF93DF9300D0CDB7DEB789839A8389817C
:103E56009A818093C7409093C84000000F900F90BE
:063E6600DF91CF910895E9
:103E6C00CF93DF9300D0CDB7DEB789839A83898156
:103E7C009A818093C9409093CA4000000F900F9094
:063E8C00DF91CF910895C3
:103E9200CF93DF9300D0CDB7DEB789839A83898130
:103EA2009A818093CB409093CC4000000F900F906A
:063EB200DF91CF9108959D
:103EB800CF93DF9300D0CDB7DEB789839A8389810A
:103EC8009A818093CD409093CE4000000F900F9040
:063ED800DF91CF91089577
:103EDE00CF93DF9300D0CDB7DEB789839A838981E4
:103EEE009A818093CF409093D04000000F900F9016
:063EFE00DF91CF91089551
:103F0400CF93DF9300D0CDB7DEB789839A838981BD
:103F14009A818093D1409093D24000000F900F90EB
:063F2400DF91CF9108952A
:103F2A00CF93DF9300D0CDB7DEB789839A83898197
:103F3A009A818093D9409093DA4000000F900F90B5
:063F4A00DF91CF91089504
:103F5000CF93DF93CDB7DEB788EC96E021E0FC018C
:103F6000228388EC96E021E0FC01208380E0DF9151
:043F7000CF91089550
:103F7400CF93DF93CDB7DEB780ED96E021E0FC016F
:103F8400228380ED96E021E0FC01208380E0DF9134
:043F9400CF9108952C
:103F9800CF93DF93CDB7DEB780EC96E021E0FC014C
:103FA800228380EC96E021E0FC01208380E0DF9111
:043FB800CF91089508
:103FBC00CF93DF93CDB7DEB780E096E020E036E01C
:103FCC00F90122852260FC0122870000DF91CF914C
:023FDC00089546
:103FDE00092E0394000C11F4882352F0BB0F40F409
:103FEE00BF2B11F460FF04C06F5F7F4F8F4F9F4F49
:023FFE00089524
:10400000CF93DF930F92CDB7DEB7898389818093F9
:0C401000FC4000000F90DF91CF9108955C
:10401C00CF93DF930F92CDB7DEB7898389818093DD
:0C402C00FB4000000F90DF91CF91089541
:10403800CF93DF93CDB7DEB70E94FF1C0E94931980
:0C4048000E94171D0000DF91CF91089529
:10405400CF93DF93CDB7DEB79091074181E09923E9
:0A40640009F480E0DF91CF91089588
:10406E00CF93DF93CDB7DEB79091034181E09923D3
:0A407E0009F480E0DF91CF9108956E
:10408800CF93DF93CDB7DEB780E091E00E940719A8
:084098000000DF91CF910895B3
:1040A000CF93DF93CDB7DEB780E090E00E94071991
:0840B0000000DF91CF9108959B
:1040B800EC010E9482210E948121CE010E9483216D
:0640C800CE010E947F21E1
:1040CE00CF93DF93CDB7DEB70000DF91CF91089588
:1040DE00CF93DF93CDB7DEB70000DF91CF91089578
:1040EE00CF93DF93CDB7DEB70000DF91CF91089568
:1040FE00CF93DF93CDB7DEB70000DF91CF91089558
:10410E00CF93DF93CDB7DEB70000DF91CF91089547
:10411E00CF93DF93CDB7DEB70000DF91CF91089537
:10412E00CF93DF93CDB7DEB70000DF91CF91089527
:10413E00CF93DF93CDB7DEB70000DF91CF91089517
:10414E00CF93DF93CDB7DEB70000DF91CF91089507
:10415E00CF93DF93CDB7DEB70000DF91CF910895F7
:10416E00CF93DF93CDB7DEB70000DF91CF910895E7
:10417E00CF93DF93CDB7DEB70000DF91CF910895D7
:10418E00CF93DF93CDB7DEB70000DF91CF910895C7
:10419E00CF93DF93CDB7DEB70000DF91CF910895B7
:1041AE00CF93DF93CDB7DEB70000DF91CF910895A7
:1041BE00CF93DF93CDB7DEB70000DF91CF91089597
:1041CE00CF93DF93CDB7DEB70000DF91CF91089587
:1041DE00CF93DF93CDB7DEB70000DF91CF91089577
:1041EE00CF93DF93CDB7DEB70000DF91CF91089567
:1041FE00CF93DF93CDB7DEB70000DF91CF91089557
:10420E00CF93DF93CDB7DEB70000DF91CF91089546
:10421E00CF93DF93CDB7DEB70000DF91CF91089536
:10422E00CF93DF93CDB7DEB70000DF91CF91089526
:10423E00CF93DF93CDB7DEB70000DF91CF91089516
:10424E00CF93DF93CDB7DEB70000DF91CF91089506
:10425E00CF93DF93CDB7DEB70000DF91CF910895F6
:10426E00CF93DF93CDB7DEB70000DF91CF910895E6
:0E427E005058BB27AA270E94CC0F0C94EF1FAC
:0E428C0000240A94161617061806090608954F
:0E429A0000240A941216130614060506089551
:0E42A800E894BB2766277727CB0197F9089586
:0C42B60097F99F6780E870E060E00895D1
:0A42C2001BBEFC0164BF4083089599
:0A42CC000E943A1B08F481E00895F7
:0A42D6000E943A1B08F48FEF0895D0
:0842E0000E94AB0D0C94EF1FCE
:0842E8000E94620F0C94EF1F0D
:0642F0009FEF80EC089531
:0442F6000C94000024
:0442FA009F7708950D
:0442FE000E94CB004F
:0243020008951C
:0243040008951A
:02430600089518
:10430800030000000000000000000000011C000085
:0843180000000000DCCFD135EC
:084320000000000000C0153F81
:084328000000803F0000C03FCF
:0443300000004842FF
:02433400230064
:02433600FF4046
:014338000183
:02000004008278
:090000000000000000C000000037
:00000001FF
