:100000000C9498000C941A0D0C94390C0C941A0D45
:100010000C941A0D0C941A0D0C941A0D0C942808BB
:100020000C941A0D0C9498070C94C8070C94F807BC
:100030000C941A0D0C941A0D0C941A0D0C941A0DA4
:100040000C941A0D0C941A0D0C941A0D0C941A0D94
:100050000C941A0D0C941A0D0C941A0D0C941A0D84
:100060000C942A0C0C94D8060C946D090C941A0D5F
:100070000C941A0D0C941A0D0C941A0D0C94E7089C
:100080000C9414090C946D0B0C941A0D0C941A0D0D
:100090000C941A0D0C941A0D0C941A0D0C941A0D44
:1000A0000C941A0D0C941A0D0C941A0D0C941A0D34
:1000B0000C941A0D0C941A0D0C9412050C941A0D34
:1000C0000C9408070C9438070C9468070C946E067F
:1000D0000C941A0D0C941A0D0C941A0D0C941A0D04
:1000E0000C941A0D0C941A0D0C941A0D0C942A0AE7
:1000F0000C941A0D0C941A0D0C941A0D0C941A0DE4
:10010000400040618040614069001A484069407485
:10011000804074407C001A50407C407E80407E408D
:100120008C001A58408C40988040984099001A667C
:1001300011241FBECFEFCDBFDFE7DEBFE0E0F1E06F
:1001400041E019C0B791A79137912791079107FD19
:100150000EC097918791EF01F92FE82F0BBF079001
:100160000D92A217B307D9F7FE011BBE04C01D9262
:10017000A217B307E1F7E033F40721F70E94E40B7D
:080180000C94C200F894FFCFBB
:100188008F929F92AF92BF92CF92DF92EF92FF929F
:100198000F931F93CF93DF9300D000D0CDB7DEB776
:1001A80080919140813009F0F8C0109291400F2E53
:1001B800F5E6AF2EF0E4BF2EF02D05E510E40F2E86
:1001C800F9E4CF2EF0E4DF2EF02D0F2EFBE58F2E75
:1001D800F0E49F2EF02D7601F50181915F010E94D8
:1001E800560CF801819391938F0120917C403091B6
:1001F8007D4040918A4050918B404217530758F1F7
:100208008533F8E09F0738F120918C4030918D407C
:100218002F5F3F4F20938C4030938D40BC0180E08E
:1002280090E00E94310623EA36E043E55AE30E9453
:10023800130D9B01AC010E94130D9B01AC01F7014A
:1002480060817181828193810E94C00CF701608373
:10025800718382839383F4E0EF0EF11C081519056E
:1002680009F0BACF0E94B704ACE6B0E48C91E4E0A0
:10027800F0E4808711968C911197818712968C9162
:10028800828719821A821B821C82609100407091B9
:10029800014080E090E00E9431062BED3AE241EB0C
:1002A80054E30E94130D69837A838B839C8369814D
:1002B8007A818B819C8126EA3BE944E45BE30E94D6
:1002C800060D18167CF469817A818B819C812FE652
:1002D80032E143E05CE30E94010D88231CF4109294
:1002E8000B4003C081E080930B4080917C4090914B
:1002F8007D4020918A4030918B402817390708F0BB
:100308004CC010927C4010927D4060918C4070915E
:100318008D4080E090E00E9431064B015C010DE3C6
:1003280010E40F2EF5E5EF2EF0E4FF2EF02DA501D9
:100338009401F60160817181828193810E940F0D81
:10034800F60111921192119211926F010E94B1055A
:1003580020E030E048EC52E40E94130D20E030E049
:1003680040E05FE30E94C00C0E94B80880E090E083
:100378000E94310620E030E048EC52E40E940F0D64
:10038800F80161937193819391938F01EC14FD04AB
:1003980071F610928C4010928D4080915D40909142
:1003A8005E40A0915F40B0916040803C944DA14078
:1003B800B10530F110925D4010925E4010925F409E
:1003C8001092604080E00E94EA020E94B10C8823EB
:1003D800D9F00E94860B0EE810E4F80180830E9491
:1003E800860BF801818310925D4010925E40109256
:1003F8005F4010926040109291400E94EA0204C04F
:100408000E94B10C8111E5CF2496CDBFDEBFDF91EC
:10041800CF911F910F91FF90EF90DF90CF90BF90F9
:08042800AF909F908F900895A2
:10043000CF92DF92EF92FF920F931F93CF93DF93B0
:100440000E94F10560E074E087EDFB01808340E2EB
:1004500054E087E3FA01808320E434E081E0F9018D
:10046000808380E694E00F2EF5E8FF2EF02DFC014E
:10047000F082C0E8D4E006E00883A0EAB4E018E027
:100480001C930F2EF0ECCF2EF4E0DF2EF02DF601B2
:1004900010826894EE24E7F8FB01E4820F2EF0E36B
:1004A000EF2EF02DFA01E482F9011482FC01F482AE
:1004B0000C8314961C931497F6011482FB01108A86
:1004C000118A128A138A148A158A168A178AFA01DF
:1004D000108A118A128A138A148A158A168A178A30
:1004E000F901108A118A128A138A148A158A168AC7
:1004F000178BFC01108A14E0118B128A138A148A5C
:10050000158A168A178A188A198A1A8A1B8B1C8AD6
:100510001D8A1E8A1F8B50961C92509751961C92D2
:10052000519752961C92529753961C9253975496F9
:100530001C92549755961C92559756961C92569716
:1005400057961C925797F601108A118A128A138ABD
:10055000148A158A168A178AFB0113861686158651
:100560001486FA011386168615861486F9011386F9
:10057000168615861486FC01138616861586148643
:100580001B861E861D861C861B961C921B971E961C
:100590001C921E971D961C921D971C961C92F6018C
:1005A0001386168615861486E0EEF5E01186118214
:1005B000108214821682178210861582128213828C
:1005C0001286DF91CF911F910F91FF90EF90DF90F6
:0405D000CF9008952B
:1005D4000F931F93823009F445C028F4882351F007
:1005E4008130B1F181C0833009F446C0843009F40C
:1005F4004DC07AC040916140509162406091634027
:100604007091644000E010E0980181E00E94600570
:1006140040916140509162406091634070916440A8
:1006240000E010E020EF32E482E00E946005409197
:10063400614050916240609163407091644000E079
:1006440010E020E733E483E00E94600580E04DC0C1
:1006540000E010E09801B901A80183E00E94600560
:1006640080E043C000E010E09801B901A80182E0F5
:100674000E94600580E039C000E010E09801B901F3
:10068400A80181E00E94600580E02FC04091614094
:1006940050916240609163407091644000E010E0CA
:1006A40020E733E481E00E9460054091614050916D
:1006B4006240609163407091644000E010E020EF7C
:1006C40032E482E00E9460054091614050916240B2
:1006D400609163407091644000E010E0980183E011
:1006E4000E94600580E001C081E01F910F91089590
:1006F4000E94CD0C58F00E94C60C40F029F45F3FD4
:1007040029F00C94E20C51110C94D50C0C94170D97
:100714000E94910A68F39923B1F3552391F3951B31
:10072400550BBB27AA2762177307840738F09F5F0E
:100734005F4F220F331F441FAA1FA9F335D00E2E7B
:100744003AF0E0E832D091505040E695001CCAF7E8
:100754002BD0FE2F29D0660F771F881FBB1F2617AB
:1007640037074807AB07B0E809F0BB0B802DBF0182
:10077400FF2793585F4F3AF09E3F510578F00C9451
:10078400E20C0C94D50C5F3FE4F3983ED4F38695C9
:1007940077956795B795F7959F5FC9F7880F911D72
:1007A4009695879597F90895E1E0660F771F881F5E
:1007B400BB1F621773078407BA0720F0621B730B11
:0C07C400840BBA0BEE1F88F7E095089537
:1007D0000E94C60C38F00E94CD0C20F0952311F039
:1007E0000C94E20C0C94170D11240C94D50C0E945F
:1007F000910A70F3959FC1F3950F50E0551F629FCA
:10080000F001729FBB27F00DB11D639FAA27F00D69
:10081000B11DAA1F649F6627B00DA11D661F829F90
:100820002227B00DA11D621F739FB00DA11D621F75
:10083000839FA00D611D221F749F3327A00D611D92
:10084000231F849F600D211D822F762F6A2F112474
:100850009F5750409AF0F1F088234AF0EE0FFF1FA7
:10086000BB1F661F771F881F91505040A9F79E3FFE
:10087000510580F00C94E20C0C94D50C5F3FE4F32E
:10088000983ED4F3869577956795B795F795E79554
:100890009F5FC1F7FE2B880F911D9695879597F95D
:0208A0000895B9
:1008A2000E94C60C38F00E94CD0C20F039F49F3F14
:1008B20019F426F40C94170D0EF4E095E7FB0C9452
:1008C200E20CE92F0E94910A58F3BA1762077307E4
:1008D2008407950720F079F4A6F50C94D40C0EF455
:1008E200E0950B2EBA2FA02D0B01B90190010C013E
:1008F200CA01A0011124FF27591B99F0593F50F456
:10090200503E68F11A16F040A22F232F342F4427AD
:10091200585FF3CF469537952795A795F0405395A5
:10092200C9F77EF41F16BA0B620B730B840BBAF075
:100932009150A1F0FF0FBB1F661F771F881FC2F7E0
:100942000EC0BA0F621F731F841F48F487957795F4
:100952006795B795F7959E3F08F0B0CF9395880FAE
:0C09620008F09927EE0F979587950895EF
:10096E000F931F93CF93DF93E4E0F0E483E0808353
:10097E008CEF808FA5E5B0E48D919C9111978183CA
:10098E00928312968D919C911397838394831496E0
:10099E008D919C91159785839683ADE3B0E44D912F
:1009AE005D916D917C911397438754876587768708
:1009BE0014964D915D916D917C9117974787508B51
:1009CE00618B728B18968D919D910D90BC91A02D7F
:1009DE00838B948BA58BB68B80919840813021F4BC
:1009EE0082E380931B400DC0823059F48CE38093D8
:1009FE001B4007C089910E94F30AC017D107D1F797
:100A0E0005C0C4E0D0E40DE110E4F4CFDF91CF9146
:060A1E001F910F910895E5
:100A24001F920F920FB60F9211240BB60F922F93B1
:100A34003F934F935F936F937F938F939F93AF9362
:100A4400BF93EF93FF93E0917440F091754030971A
:100A540009F0099521E02093914080917C40909188
:100A64007D40019680937C4090937D4080915D40D1
:100A740090915E40A0915F40B09160400196A11DAD
:100A8400B11D80935D4090935E40A0935F40B0930E
:100A9400604020934B0AFF91EF91BF91AF919F91DA
:100AA4008F917F916F915F914F913F912F910F9013
:0C0AB4000BBE0F900FBE0F901F90189506
:100AC0008F929F92AF92BF92CF92DF92EF92FF925E
:100AD0000F931F934A015B016801790180930240E3
:100AE0000E94ED0C27E73CEC4BE251E4C501B40158
:100AF0000E94130D20E030E040E05FE30E94C00C54
:100B00000E94B808AB01BC0180E090E40E94960905
:100B100021E63BE046E351E4C701B6010E94130D14
:100B20000E94B80880E090EC0E94F70C0E94F20C42
:100B300040E050E060E070E080E090E00E94B80C9F
:100B40001F910F91FF90EF90DF90CF90BF90AF90EB
:060B50009F908F900895B4
:100B560019F416F40C94170D0C94480C0E94990A7B
:100B6600B8F39923C9F3B6F39F57550B87FF0E9435
:100B7600DB0C0024A0E640EA900180585695979534
:100B860028F4805C660F771F881F20F0261737072A
:100B9600480730F4621B730B840B202931294A2B3A
:100BA600A69517940794202531254A2758F7660FEE
:100BB600771F881F20F026173707480730F4620B87
:100BC600730B840B200D311D411DA09581F7B901D2
:0C0BD600842F9158880F969587950895FC
:100BE200E0E9F4E0808188608193E83984E0F807E5
:100BF200C9F7E0EBF4E0808188608193E83B84E010
:100C0200F807C9F7E0EDF4E0808188608193E83D60
:100C120084E0F807C9F7E0E1F4E08081886081931D
:100C2200E83184E0F807C9F7E0E3F4E08081886006
:100C32008193E83384E0F807C9F7E0E5F4E08081C6
:100C420088608193E83584E0F807C9F7E0E7F4E0CB
:100C5200808188608193E83784E0F807C9F70895B6
:100C6200E89409C097FB3EF4909580957095619544
:100C72007F4F8F4F9F4F9923A9F0F92F96E9BB27FA
:100C82009395F695879577956795B795F111F8CF76
:100C9200FAF4BB0F11F460FF1BC06F5F7F4F8F4FE1
:100CA2009F4F16C0882311F096E911C0772321F0D7
:100CB2009EE8872F762F05C0662371F096E8862F6F
:100CC20070E060E02AF09A95660F771F881FDAF7C6
:0A0CD200880F9695879597F908950D
:100CDC001F920F920FB60F9211240BB60F928F9397
:100CEC009F93EF93FF9380916B40813011F480932D
:100CFC006C4080916F40813051F410926F40809124
:100D0C00200A9091210A8093004090930140E9E6DB
:100D1C00F0E410821092200A1092210A81E0818363
:100D2C0010926D40809370408093CB06FF91EF91B1
:100D3C009F918F910F900BBE0F900FBE0F901F9035
:020D4C001895F8
:100D4E000F931F93409161405091624060916340B8
:100D5E007091644000E010E0980181E00E9460050F
:100D6E004091614050916240609163407091644047
:100D7E0000E010E020EF32E482E00E946005409136
:100D8E00614050916240609163407091644000E018
:100D9E0010E020E733E483E00E9460051F910F917D
:020DAE000895A6
:100DB0001F920F920FB60F9211240BB60F922F9322
:100DC0003F934F935F936F937F938F939F93AF93D3
:100DD000BF93EF93FF93E0917240F091734030978F
:100DE00009F0099582E080930D06FF91EF91BF9184
:100DF000AF919F918F917F916F915F914F913F91B3
:100E00002F910F900BBE0F900FBE0F901F90189553
:100E10001F920F920FB60F9211240BB60F922F93C1
:100E20003F934F935F936F937F938F939F93AF9372
:100E3000BF93EF93FF93E0917A40F0917B4030971E
:100E400009F0099580E180934B0AFF91EF91BF91E2
:100E5000AF919F918F917F916F915F914F913F9152
:100E60002F910F900BBE0F900FBE0F901F901895F3
:100E70001F920F920FB60F9211240BB60F922F9361
:100E80003F934F935F936F937F938F939F93AF9312
:100E9000BF93EF93FF93E0917840F09179403097C2
:100EA00009F0099580E280934B0AFF91EF91BF9181
:100EB000AF919F918F917F916F915F914F913F91F2
:100EC0002F910F900BBE0F900FBE0F901F90189593
:100ED0001F920F920FB60F9211240BB60F922F9301
:100EE0003F934F935F936F937F938F939F93AF93B2
:100EF000BF93EF93FF93E0917640F0917740309766
:100F000009F0099580E480934B0AFF91EF91BF911E
:100F1000AF919F918F917F916F915F914F913F9191
:100F20002F910F900BBE0F900FBE0F901F90189532
:100F30001F920F920FB60F9211240BB60F922F93A0
:100F40003F934F935F936F937F938F939F93AF9351
:100F5000BF93EF93FF93E0918440F09185403097E9
:100F600009F0099580E180930B0AFF91EF91BF9101
:100F7000AF919F918F917F916F915F914F913F9131
:100F80002F910F900BBE0F900FBE0F901F901895D2
:100F90001F920F920FB60F9211240BB60F922F9340
:100FA0003F934F935F936F937F938F939F93AF93F1
:100FB000BF93EF93FF93E0918240F091834030978D
:100FC00009F0099580E280930B0AFF91EF91BF91A0
:100FD000AF919F918F917F916F915F914F913F91D1
:100FE0002F910F900BBE0F900FBE0F901F90189572
:100FF0001F920F920FB60F9211240BB60F922F93E0
:101000003F934F935F936F937F938F939F93AF9390
:10101000BF93EF93FF93E0918040F0918140309730
:1010200009F0099580E480930B0AFF91EF91BF913D
:10103000AF919F918F917F916F915F914F913F9170
:101040002F910F900BBE0F900FBE0F901F90189511
:101050001F920F920FB60F9211240BB60F922F937F
:101060003F934F935F936F937F938F939F93AF9330
:10107000BF93EF93FF93E0917E40F0917F403097D4
:1010800009F0099581E080930B0AFF91EF91BF91E0
:10109000AF919F918F917F916F915F914F913F9110
:1010A0002F910F900BBE0F900FBE0F901F901895B1
:1010B000EF92FF920F931F93CF93DF93CDB7DEB7DD
:1010C0002597CDBFDEBF9E012F5F3F4F790125E001
:1010D000F70111922A95E9F799838A8302E010E4D7
:1010E00060E0F80180810E94BE0962E0C7010E94B1
:1010F000FC0C61E0F80180810E94BE092596CDBFFD
:10110000DEBFDF91CF911F910F91FF90EF90089577
:101110008823B1F082E08093984080E090E0A0E7DF
:10112000B2E48093614090936240A0936340B09397
:10113000644080E490E080938A4090938B4015C097
:1011400081E08093984080E090E0A8E4B2E480934E
:10115000614090936240A0936340B093644080E507
:1011600090E080938A4090938B400E94B70408954A
:101170000E94990A88F09F5798F0B92F9927B75184
:10118000B0F0E1F0660F771F881F991F1AF0BA952B
:10119000C9F714C0B13091F00E94D40CB1E00895A9
:1011A0000C94D40C672F782F8827B85F39F0B93F9B
:1011B000CCF3869577956795B395D9F73EF49095DE
:0E11C0008095709561957F4F8F4F9F4F0895DA
:1011CE001F920F920FB60F9211240BB60F922F9300
:1011DE003F934F935F936F937F938F939F93AF93B1
:1011EE00BF93EF93FF93E0918840F0918940309741
:1011FE0009F00995FF91EF91BF91AF919F918F915A
:10120E007F916F915F914F913F912F910F900BBEF8
:0A121E000F900FBE0F901F9018955F
:101228001F920F920FB60F9211240BB60F922F93A5
:101238003F934F935F936F937F938F939F93AF9356
:10124800BF93EF93FF93E0918640F09187403097EA
:1012580009F00995FF91EF91BF91AF919F918F91FF
:101268007F916F915F914F913F912F910F900BBE9E
:0A1278000F900FBE0F901F90189505
:1012820040E068ED88E790E00E94E80C40E068EDFD
:101292008CE790E00E94E80C40E168ED81E690E086
:1012A2000E94E80C40E068ED80E690E00E94E80CC5
:1012B20040E068ED83E690E00E94E80C44E268EDCD
:1012C20088E690E00E94E80C40E068ED82E690E05B
:0812D2000E94E80C80E0089581
:1012DA001F920F920FB60F9211240BB60F928F9393
:1012EA00EF93FF9380916A40813011F480936E40AE
:1012FA001092200A1092210AE9E6F0E4128281E0B3
:10130A00808310926C4080936F408093C306FF9154
:10131A00EF918F910F900BBE0F900FBE0F901F9001
:02132A00189514
:10132C000F931F93CF93DF938A019B010027107CAF
:10133C003F700F2EFEE03695279517950795FA9579
:10134C00D1F7F02DEC01C02BD12B5F738A01082B48
:10135C00192B80E090E20E945808C8010E9458089E
:10136C00CE010E945808DF91CF911F910F910895E3
:10137C00823071F08330B1F08130E9F4662321F0D2
:10138C0080E880936504089580E88093660408954E
:10139C00662321F088E08093A504089588E080936B
:1013AC00A6040895662321F082E0809385040895B5
:0813BC0082E08093860408958D
:1013C400823071F08330B1F08130E9F4662321F08A
:1013D40080E880930504089580E8809306040895C6
:1013E400662321F084E080938504089584E080934B
:1013F40086040895662321F080E1809325040895EE
:0814040080E1809326040895A5
:10140C00990F0008550FAA0BE0E8FEEF1616170609
:10141C00E807F907C0F012161306E407F50798F071
:10142C00621B730B840B950B39F40A2661F0232B8A
:10143C00242B252B21F408950A2609F4A140A69506
:08144C008FEF811D811D089541
:101454001F920F920FB60F9211240BB60F928F9317
:10146400EF93FF9380916940813011F480936D4034
:10147400E9E6F0E4118281E0828310926E40809369
:10148400D306FF91EF918F910F900BBE0F900FBE7B
:061494000F901F90189557
:10149A00E0E4FAE081E090E080A791A782A793A711
:1014AA0084A795A780A391A3118212821382148222
:1014BA00158216821782168680E6818781E08287E6
:1014CA0013868CEE95E086A397A3178687E0808320
:0414DA0080E0089511
:1014DE00E0E0FAE081E090E080A791A782A793A7D1
:1014EE0084A795A780A391A31182128213821482DE
:1014FE00158216821782168680E6818781E08287A2
:10150E0013868FEF9FEF86A397A3178687E08083BE
:04151E0080E00895CC
:1015220057FD9058440F551F59F05F3F71F0479592
:10153200880F97FB991F61F09F3F79F08795089577
:10154200121613061406551FF2CF4695F1DF08C096
:10155200161617061806991FF1CF869571056105B3
:04156200089408954C
:101566000F931F93CF93DF9300D0CDB7DEB78FE1F4
:10157600898302E010E460E0F80181810E94E209BB
:1015860061E0CE0101960E94FC0C61E0F8018181C8
:101596000E94E2090F900F90DF91CF911F910F915A
:0215A6000895A6
:1015A80080919240882389F0E0919340EF5FEF703B
:1015B800E0939340F0E0E35EFF4B80818093220844
:1015C8008091924081508093924080919240811105
:0E15D80005C0E0E2F8E085818F7D85830895EF
:1015E600209194402F5F2F70909192409031E1F3BB
:1015F600E22FF0E0E35EFF4B8083209394400FB62A
:10160600F8940F92809192408F5F809392400F9052
:0E1616000FBEE0E2F8E08581806285830895D2
:101624000E9418020E946F0C0E94940C0E948C0C61
:101634000E9441090E94A30C0E94B70B0E946F0AEA
:101644000E94500B0E94630C0E949C0C0E944D0A45
:0E1654000E94AA0C0E941B0C0E94840C089598
:10166200CF93C0E013C0579911C010927C401092E2
:101672007D40C0958C2F0E9488082FE986E891E072
:10168200215080409040E1F700C0000080917C40F2
:0E16920090917D4081329E4430F3CF910895B7
:1016A000E0E2F8E081EA91E08087918780ED858330
:1016B00080EC868383E087831386148616861586DE
:1016C000109296401092974010929540109293403D
:0A16D0001092944010929240089589
:1016DA001F920F920FB60F9211240BB60F928F938F
:1016EA00EF93FF93E0E2F8E0848180648483FF91C2
:1016FA00EF918F910F900BBE0F900FBE0F901F901E
:02170A00189530
:10170C00809195408823E1F3E0919640EF5FEF7074
:10171C00E09396400FB6F8940F92809195408150CB
:10172C00809395400F900FBEF0E0E35DFF4B8081FE
:02173C0008950E
:10173E000F931F93CF93DF93D1E002E010E409C023
:10174E00F801D1830E94B30AC150D1F7DF5FD430C4
:10175E0011F0C5E1F5CFDF91CF911F910F91089553
:10176E00E0E0F6E0118281E0828313821482168615
:10177E001386148684E0808780E481871582148A1C
:0E178E00158A128A138A81E2808380E0089512
:10179C0090912008E0919740EF5FEF708091964018
:1017AC00E81759F0E0939740F0E0E35DFF4B90832E
:0C17BC00809195408F5F809395400895C8
:1017C8000E94120B2FEF8DE399E421508040904046
:1017D800E1F700C000000E949F0B0E94310B0E949D
:0817E800A7060E94C400FDCF1A
:1017F0006115710571F0DC01680F791FE0E4F9E013
:101800009D91948393819923ECF78481A617B70760
:04181000B9F7089587
:10181400092E0394000C11F4882352F0BB0F40F4FA
:10182400BF2B11F460FF04C06F5F7F4F8F4F9F4F3A
:02183400089515
:1018360041E068ED80E191E00E94E80CE0E1F1E032
:0E18460081E0828380E28383789480E00895BD
:101854001F920F920FB60F9211248F9381E0809301
:0E1864000D068F910F900FBE0F901F901895DC
:101872001F920F920FB60F9211248F9381E08093E3
:0E1882008A008F910F900FBE0F901F90189547
:101890009F3F31F0915020F4879577956795B795E4
:0C18A000880F911D9695879597F9089583
:1018AC000E947B0C0E940B0D8823E1F3E0E0F6E034
:0A18BC008089918921E025870895B5
:1018C600E0E4F9E081E2808382E081831282109273
:0818D6009040138280E00895A8
:1018DE0040E068ED80E890E00E94E80CE0E8F0E07F
:0818EE001186108680E00895C8
:1018F600E0E0F6E090819F7D9083808781E082879B
:02190600089542
:10190800E0EAF0E0148285E88083128280E008959E
:1019180040E068ED80E590E00E94E80C80E00895E2
:1019280040E068ED80E091E00E94E80C80E00895D6
:0E193800E0EDF6E081E08283808380E0089598
:0E194600E8ECF6E081E08283808380E0089583
:0E195400E0ECF6E081E08283808380E008957D
:0E1962009091954081E0911101C080E00895C0
:0E197000462B572B842B952B0E945808089568
:0E197E005058BB27AA270E9462040C940A0C42
:0E198C0000240A941616170618060906089578
:0E199A0000240A94121613061406050608957A
:0E19A800E894BB2766277727CB0197F90895AF
:0E19B60091505040660F771F881FD2F708959A
:0C19C40097F99F6780E870E060E00895EC
:0A19D0001BBEFC0164BF40830895B4
:0A19DA0080E091E00E945808089593
:0A19E40080E090E00E94580808958A
:0A19EE00862B972B0E9458080895DD
:0A19F80070E00E94F80B80E00895F3
:0A1A02000E94060A08F481E008952E
:0A1A0C000E94060A08F48FEF089507
:081A160080910D068170089516
:081A1E000E948A030C940A0CDB
:081A26000E94F7030C940A0C66
:061A2E009FEF80EC08951B
:041A34000C9400000E
:021A380008950F
:021A3A0008950D
:021A3C0008950B
:021A3E00089509
:021A4000089507
:021A4200089505
:021A4400089503
:021A4600089501
:041A48000000484210
:041A4C000405060087
:021A50001F0D68
:021A52001E0D67
:021A54001D0D66
:021A56001C0D65
:021A5800230D5C
:021A5A00220D5B
:021A5C00210D5A
:021A5E00200D59
:021A6000D40AA6
:021A6200CE0BA9
:021A6400500030
:011A6600017E
:02000004008278
:090000000000000000E000000017
:00000001FF
